:1000000012C021C020C01FC01EC01DC01CC01BC00C
:100010001AC019C018C017C016C015C014C013C02C
:1000200012C011C010C011241FBECFE5D4E0DEBF46
:10003000CDBF10E0A0E6B0E001C01D92A236B1072E
:10004000E1F702D0E1C0DCCF8ED010D01ED090916D
:10005000600080916100891721F0992311F0892FA8
:100060007DD08091600080936100F0CF8E98A2983F
:10007000A198B998B89A8F9AA09A969AAA9AA99A8A
:10008000C19AC09A979AA89A089510926000C09851
:1000900081E28A95F1F7869902C081E30BC09A99B3
:1000A00002C084E307C0999902C087E303C0B199F5
:1000B00003C08AE280936000C09A979881E28A9593
:1000C000F1F7869902C082E30BC09A9902C085E3DA
:1000D00007C0999902C088E303C0B19903C080E3C7
:1000E00080936000979AA89881E28A95F1F78699A3
:1000F00002C083E30BC09A9902C086E307C09999B6
:1001000002C089E303C0B19903C083E28093600019
:10011000A89A089592B3907F92BB22B3982F92959C
:100120009F70922B92BB23E0922F9A95F1F79498AF
:10013000922F9A95F1F7949A92B3907F92BB92B3D3
:100140008F70982B92BB2A95F1F794988DE08A9541
:10015000F1F708959598949ADDDF089592B390632E
:1001600092BBD8DF089581B38F6081BB8C9A8D9A42
:1001700084EC99E00197F1F783E3ECDF88EA91E6FC
:100180000197F1F782E3E6DF88E2E4DF88E2E2DF6D
:1001900088E2E0DF88E0DEDF81E0DCDF80E593EC11
:1001A0000197F1F786E0D6DF8CE0D4DF08950F9356
:1001B0001F93CF93DF938B01CDDFC0E0D0E0F80138
:1001C000EC0FFD1FE4918E2FC9DF2196C031D105C0
:1001D000B1F7DF91CF911F910F9108950F931F9366
:1001E000CF93DF938B01B6DFC0E0D0E0F801EC0FD6
:1001F000FD1F8081B3DF2196C031D105B9F7DF91B2
:0C020000CF911F910F910895F894FFCF4B
:00000001FF
