:1000000012C02CC02BC02AC029C028C027C026C0BF
:1000100025C025C023C022C021C020C01FC01EC0D3
:100020001DC01CC01BC011241FBECFE5D4E0DEBF25
:10003000CDBF10E0A0E6B0E0E4E9F1E002C0059039
:100040000D92AA36B107D9F710E0AAE6B0E001C0D8
:100050001D92AE36B107E1F727D09AC0D1CF1F92DB
:100060000F920FB60F9211242F933F934F935F93EC
:100070006F937F938F939F93AF93BF93EF93FF9370
:1000800082EB82BF5DD0FF91EF91BF91AF919F91C5
:100090008F917F916F915F914F913F912F910F9031
:1000A0000FBE0F901F901895CF93DF9328D081E05B
:1000B00089BF85E083BF82EB82BF7894C8ECD0E033
:1000C00080916A008F5F80936A00843699F025D012
:1000D00020E030E0CE010197F1F72F5F3F4F87E23C
:1000E00020313807B9F780916A008F5F80936A00EA
:1000F000843669F710926A0080916A00E8CF8FEF2A
:1001000088BB87BB82B38C7F82BB81B3836081BB9A
:1001100010926C0010926D000895282F6AE02CD088
:10012000A0E6B0E0FD01E90FF11D808180936C0035
:10013000822F22D0A80FB11D8C9180936D0008955D
:1001400082B38C7F82BB90916B00E92FF0E0E45981
:10015000FF4F808188BB992329F4909A81E0809396
:100160006B000895913021F4919A10926B000895DC
:100170009F5F90936B000895991B79E004C0991FCD
:10018000961708F0961B881F7A95C9F780950895F1
:04019000F894FFCF11
:0A0194003F065B4F666D7D077F6F2D
:00000001FF
