:100000000C940F0218951895189518951895189531
:100010001895189518951895189518951895189578
:100020001895189518951895189518950C94E7013A
:100030001895189518951895189518951895189558
:100040001895189518951895189518951895189548
:1000500018951895189518957601750273036E0416
:100060006D056B065E075D085B093E2A3D003B237C
:100070000FEF08BB0FEF07BB02B3087F02BB01B352
:10008000076001BB00E000936A0000E000936B0092
:1000900000E000936C0008959A938A93C8014AE0A7
:1000A00050E08C010E942902E42FE05AF0E0008128
:1000B00000936A004AE050E08C010E9429024AE065
:1000C00050E00E942902E42FE05AF0E00081009302
:1000D0006B0044E650E08C010E942902402FE42F7F
:1000E000E05AF0E0008100936C00899199910895A5
:1000F00002B3087F02BB00916D00E02FE659F0E0EB
:10010000008108BB00916D00002309F4909A0091D2
:100110006D00013009F4919A00916D00023009F4EC
:10012000929A00916D00039500936D0000916D000F
:10013000033019F400E000936D00089504B30778CC
:1001400004BB05B3086705BB04B3076004BB05B374
:10015000087F05BB00E000936E0000E000936F0095
:1001600000E00093700000E00093710000E0009355
:100170007200089500916E00005039F00A9569F000
:100180000A95B9F00A95E1F0089526D0002319F1F7
:100190003FD001E000936E00089529D0002329F09C
:1001A0005DD002E000936E00089500E000936E00C1
:1001B00008951DD0002379F403E000936E000895A4
:1001C00016D0002321F002E000936E00089567D05E
:1001D00000E000936E00089505B3087F05BB0DE0B5
:1001E0000A95F1F7000003B300950877089505B369
:1001F000087F05BB00916F00077015B3102B15BB6E
:1002000000916F00009513B31095012308770895AE
:1002100000E001C00395033000F515B3176015BB6E
:10022000002309F4A898013009F4A998023009F4D0
:10023000AA981DE01A95F1F7000013B310951877EE
:10024000112341F303B3087700936F0005B30770E0
:1002500010916F00102B10936F00089500E001C003
:1002600003950C30D8F4202F30E0220F331FF90112
:10027000E85AFF4F149120916F00121789F710E090
:10028000000F111FF801E75AFF4F0491009370000F
:1002900001E00093710001E000937200089500E016
:1002A00000937100089500917200002331F000E086
:1002B0000093720000917000089500E008959A93F1
:1002C0008A930E9438000E949E0001E009BF05E069
:1002D00003BF02EB02BF00E00093740000E0009354
:1002E000750000E00093760080E090E0789405C00F
:1002F0000E94380000E0009377000E94BA000E943C
:1003000053010093730000917300002309F45AC055
:1003100000917700039500937700009177000430F7
:1003200039F3009173000A3221F000917300033217
:1003300021F400E000937700E0CF009177000430D3
:10034000F0F500917700013039F4009173000093CB
:1003500074008091740090E000917700023089F47D
:1003600000917300009375004091740050E00AE022
:1003700010E00E942102C8010091750010E0800F7A
:10038000911F009177000330D1F400917300009326
:1003900076004091740050E00AE010E00E942102D3
:1003A0002091750030E0020F131F4AE050E00E94D8
:1003B0002102C8010091760010E0800F911F8C018E
:1003C0000E944C0000EF00C00A95E9F796CF8A938F
:1003D000FA93EA933A922A921A920A927A936A9339
:1003E0005A934A933A932A931A930A938FB702EB3C
:1003F00002BF0E9478008FBF09911991299139910C
:100400004991599169917991099019902990399060
:10041000E991F9918991189500008895FECF07EB35
:100420000DBF00E00EBFC8E9D0E00E943D020023EE
:1004300011F00E944D020E945F010E940C020C9478
:100440000C02149F102D059F100D049F002D110DFF
:10045000089500241124EFE0001F111F001C111C3F
:100460000416150610F0041A150AEA95AAF7001FDB
:10047000111FA00100951095089501E0089520E056
:1004800006D0E9F70895259102D0E9F708952D9354
:1004900001501040202F212B08958EEC94E0FC0198
:1004A00005911491FC013296A591B491FC0134960A
:1004B00025913491422F432B19F0F901E4DF01C05B
:1004C000DEDF069614E08A3D910748F308950A009E
:1004D0006000DA040E006A0000003F065B4F666DA4
:0404E0007D077F6FA6
:00000001FF
:00000001FF
