:100000000C94D2021895189518951895189518956E
:100010001895189518951895189518951895189578
:100020001895189518951895189518950C94AA0276
:100030001895189518951895189518951895189558
:100040001895189518951895189518951895189548
:1000500018951895189518956701570237036B0482
:100060005B053B066D075D083D096E2A5E003E2379
:100070000FE30ABB00E00BBB0895792F082E502F29
:10008000612FDA98D998DD98DC9880E090E008C07C
:10009000DB98DA9A0000DA98DD9A0000DD98019684
:1000A000803100E09007DCF5883000E09007CCF468
:1000B000482F01E010E00E94EC02122F10231123C0
:1000C00011F0D89A01C0D898482F01E010E00E94A2
:1000D000EC02152F1023112311F0DB9ADACFDB98F5
:1000E000D8CF883000E09007A4F2482F485001E0B4
:1000F00010E00E94EC02132F1023112311F0D89A64
:1001000001C0D898482F485001E010E00E94EC024E
:10011000162F1023112309F4BBCFDB9ABACFDC9A38
:10012000D99A0000D998DC98802D972F08950E94C5
:100130000C03D8014AE050E08D010E94F802E42F40
:10014000E05AF0E0008100936A004AE050E08D013F
:100150000E94F8024AE050E00E94F802E42FE05AC0
:10016000F0E0008100936B0044E650E08D010E94B6
:10017000F802402FE42FE05AF0E0008100936C0079
:1001800044E08D010E94F202380140E150E08D010F
:100190000E94F8029A0108E0601600E0700640F440
:1001A000462D01E010E00E94EC02402E90E00CC0D1
:1001B000F3013897389740F44424462D485001E025
:1001C00010E00E94EC02902F283000E0300740F44D
:1001D000422F01E010E00E94EC02802F55240CC059
:1001E000F9013897389740F480E0422F485001E0F9
:1001F00010E00E94EC02502E352D282F192F042DCF
:100200003CDFE8E00C9415030FEF08BB0FEF07BBD2
:1002100002B3087F02BB01B3076001BB0FEF0BBB4A
:100220000FEF0ABB02B3077002BB01B3086F01BB3B
:1002300000E000936A0000E000936B0000E0009390
:100240006C0030E020E010E000E017DF089502B31A
:10025000087F02BB00916D00E02FE659F0E00081BD
:1002600008BB00916D00002309F4909A00916D0085
:10027000013009F4919A00916D00023009F4929ACC
:1002800000916D00039500936D0000916D000330A7
:1002900019F400E000936D00089500E000936E00F3
:1002A00000E000936F0000E00093700000E0009316
:1002B000710000E00093720008950E94100301B3E2
:1002C000802F02B3902F01B3A02F02B3B02F01B340
:1002D000007F01BB02B30F6002BB01B3006701BB2B
:1002E00002B30F7802BB00916E00005039F00A95FE
:1002F00069F00A95B9F00A95E1F026C02CD00023E8
:1003000019F145D001E000936E001EC02FD00023EC
:1003100029F063D002E000936E0016C000E0009365
:100320006E0012C023D0002379F403E000936E0026
:100330000BC01CD0002321F002E000936E0004C02B
:100340006DD000E000936E0081BB92BBA1BBB2BB3D
:10035000E4E00C94190302B30F7802BB0DE00A9598
:10036000F1F7000000B300950F70089502B30F7805
:1003700002BB00916F00007712B3102B12BB0091EB
:100380006F00009510B3109501230F70089500E0E1
:1003900001C00395033000F512B3106712BB0023B0
:1003A00009F49498013009F49598023009F496986C
:1003B0001DE01A95F1F7000010B310951F7011237E
:1003C00041F300B30F7000936F0002B300771091F8
:1003D0006F00102B10936F00089500E001C003958B
:1003E0000C30D8F4202F30E0220F331FF901E85AE7
:1003F000FF4F149120916F00121789F710E0000F42
:10040000111FF801E75AFF4F04910093700001E0BB
:100410000093710001E000937200089500E00093E2
:100420007100089500917200002331F000E0009304
:10043000720000917000089500E008959A938A93E5
:100440000E9404010E944D010E94380001E009BF92
:1004500005E003BF02EB02BF00E00093740000E080
:100460000093750000E00093760080E090E07894BF
:1004700005C00E94040100E0009377000E945D0126
:100480000E9412020093730000917300002309F48C
:100490005CC000917700039500937700009177008E
:1004A000043039F3009173000A3221F00091730097
:1004B000033231F40E94040100E000937700DECFA4
:1004C000009177000430F0F500917700013039F4A5
:1004D00000917300009374008091740090E000918B
:1004E0007700023089F40091730000937500409109
:1004F000740050E00AE010E00E94E402C80100919C
:10050000750010E0800F911F009177000330D1F447
:1005100000917300009376004091740050E00AE06F
:1005200010E00E94E4022091750030E0020F131FDA
:100530004AE050E00E94E402C8010091760010E019
:10054000800F911F8C010E94970006EA0A95F1F72F
:1005500000C094CF8A93FA93EA933A922A921A921D
:100560000A927A936A935A934A933A932A931A93E4
:100570000A938FB702EB02BF0E9427018FBF099138
:1005800019912991399149915991699179910990DC
:10059000199029903990E991F99189911895000065
:1005A0008895FECF07EB0DBF00E00EBFC8E9D0E095
:1005B0000E942203002311F00E9432030E941E02B7
:1005C0000E94CF020C94CF02149F102D059F100D96
:1005D000049F002D110D08954A951AF0000F111F68
:1005E000FBCF08954A951AF016950795FBCF08950D
:1005F00000241124EFE0001F111F001C111C041621
:10060000150610F0041A150AEA95AAF7001F111F23
:10061000A0010095109508957A926A925A924A9292
:10062000BA93AA939A938A9308957F806E805D808F
:100630004C80BB81AA8199818881F0E0EC0FFD1F7D
:10064000EF01089501E0089520E006D0E9F708954C
:10065000259102D0E9F708952D9301501040202FE5
:10066000212B089588E996E0FC0105911491FC0185
:100670003296A591B491FC01349625913491422F84
:10068000432B19F0F901E4DF01C0DEDF069616E026
:10069000843A910748F308950A006000A4060E000A
:0E06A0006A0000003F065B4F666D7D077F6FAE
:00000001FF
:00000001FF
