:100000000C944A00189518951895189518951895F8
:100010001895189518951895189518951895189578
:100020001895189518951895189518951895189568
:100030001895189518951895189518951895189558
:100040001895189518951895189518951895189548
:10005000189518951895189500E00BBB00E00ABBA1
:1000600000E008BB0FEF07BB00E005BB0FEF04BBD0
:1000700000E002BB0FEF01BBC89B02C001E008BB60
:10008000C99BFACF0FEF02BB05BB08BBF5CF000041
:100090008895FECF0FE90DBF00E00EBFC0E8D0E0AD
:1000A0000E9458000E942C000E9447000C944700B8
:0400B00001E00895CE
:00000001FF
:00000001FF
