:100000000C94D5021895189518951895189518956B
:100010001895189518951895189518951895189578
:100020001895189518951895189518950C94AD0273
:100030001895189518951895189518951895189558
:100040001895189518951895189518951895189548
:1000500018951895189518956701570237036B0482
:100060005B053B066D075D083D096E2A5E003E2379
:100070000FEF08BB0FEF07BB02B3087F02BB01B352
:10008000076001BB0FEF0BBB0FEF0ABB02B307709A
:1000900002BB01B3086F01BB00E000936A0000E0FF
:1000A00000936B0000E000936C0008950FE30ABB1F
:1000B00000E00BBB0895BC01302F212FDA98D998AE
:1000C000DD98DC9880E090E006C0DB98DA9ADA9858
:1000D000DD9ADD980196803100E090070CF043C076
:1000E000883000E09007F4F4E22FF0E05181482FCF
:1000F00001E010E00E94EF025023552311F0D89A3E
:1001000001C0D898E32FF0E05181482F485001E01A
:1001100010E00E94EF025023552311F0DB9AD6CF56
:10012000DB98D4CF883000E0900784F2E22FF0E033
:100130005281482F01E010E00E94EF025023552326
:1001400011F0D89A01C0D898E32FF0E05281482FDF
:10015000485001E010E00E94EF025023552309F4BB
:10016000B4CFDB9AB3CFDC9AD99ACB0108950E9421
:100170000F03C450C8014AE050E08C010E94FB020A
:10018000E42FE05AF0E0008100936A004AE050E07A
:100190008C010E94FB024AE050E00E94FB02E42F27
:1001A000E05AF0E0008100936B0044E650E08C01DF
:1001B0000E94FB02402FE42FE05AF0E00081009300
:1001C0006C0044E08C010E94F502D80140E150E04F
:1001D0008C010E94FB029A01A83000E0B00748F4AD
:1001E0004A2F01E010E00E94EF02088300E009833B
:1001F0000EC0CD0108978830904048F400E0088395
:100200004A2F485001E010E00E94EF020983283095
:1002100000E0300748F4422F01E010E00E94EF02B6
:100220000A8300E00B830EC0C90108978830904014
:1002300048F400E00A83422F485001E010E00E9499
:10024000EF020B831C2F0C2F0E5F35DFCC5FE4E039
:100250000C94140302B3087F02BB00916D00E02FE1
:10026000E659F0E0008108BB00916D00002309F41D
:10027000909A00916D00013009F4919A00916D00FF
:10028000023009F4929A00916D00039500936D007D
:1002900000916D00033019F400E000936D000895A3
:1002A00000E000936E0000E000936F0000E0009318
:1002B000700000E00093710000E000937200089568
:1002C0000E940F0301B3802F02B3902F01B3A02F20
:1002D00002B3B02F01B3007F01BB02B30F6002BBBA
:1002E00001B3006701BB02B30F7802BB00916E003F
:1002F000005039F00A9569F00A95B9F00A95E1F0D5
:1003000026C02CD0002319F145D001E000936E00E7
:100310001EC02FD0002329F063D002E000936E00AE
:1003200016C000E000936E0012C023D0002379F4C1
:1003300003E000936E000BC01CD0002321F002E00C
:1003400000936E0004C06DD000E000936E0081BB8E
:1003500092BBA1BBB2BBE4E00C94140302B30F78D0
:1003600002BB0DE00A95F1F7000000B300950F7095
:10037000089502B30F7802BB00916F00007712B3AB
:10038000102B12BB00916F00009510B31095012344
:100390000F70089500E001C00395033000F512B31B
:1003A000106712BB002309F49498013009F4959862
:1003B000023009F496981DE01A95F1F7000010B389
:1003C00010951F70112341F300B30F7000936F005D
:1003D00002B3007710916F00102B10936F000895F7
:1003E00000E001C003950C30D8F4202F30E0220F3C
:1003F000331FF901E85AFF4F149120916F00121733
:1004000089F710E0000F111FF801E75AFF4F049120
:100410000093700001E00093710001E0009372000E
:10042000089500E000937100089500917200002388
:1004300031F000E00093720000917000089500E038
:1004400008959A938A930E9438000E9450010E9456
:10045000560001E009BF05E003BF02EB02BF00E068
:100460000093740000E00093750000E000937600B4
:1004700080E090E0789405C00E94380000E000938E
:1004800077000E9460010E941502009373000091A2
:100490007300002309F45CC000917700039500937A
:1004A000770000917700043039F3009173000A322D
:1004B00021F000917300033231F40E94380000E013
:1004C00000937700DECF009177000430F0F50091C3
:1004D0007700013039F4009173000093740080912B
:1004E000740090E000917700023089F4009173006D
:1004F000009375004091740050E00AE010E00E9403
:10050000E702C8010091750010E0800F911F009173
:1005100077000330D1F4009173000093760040918E
:10052000740050E00AE010E00E94E702209175009C
:1005300030E0020F131F4AE050E00E94E702C801BA
:100540000091760010E0800F911F8C010E94B7008F
:1005500000EF00C00A95E9F794CF8A93FA93EA93E3
:100560003A922A921A920A927A936A935A934A93E7
:100570003A932A931A930A938FB702EB02BF0E9411
:100580002A018FBF09911991299139914991599166
:10059000699179910990199029903990E991F9918F
:1005A0008991189500008895FECF07EB0DBF00E0FC
:1005B0000EBFC8E9D0E00E941D03002311F00E9485
:1005C0002D030E9421020E94D2020C94D202149F99
:1005D000102D059F100D049F002D110D08954A95B3
:1005E0001AF0000F111FFBCF08954A951AF01695C7
:1005F0000795FBCF089500241124EFE0001F111F81
:10060000001C111C0416150610F0041A150AEA95B0
:10061000AAF7001F111FA001009510950895BA9325
:10062000AA939A938A930895BB81AA81998188811C
:10063000F0E0EC0FFD1FEF01089501E0089520E0C8
:1006400006D0E9F70895259102D0E9F708952D9392
:1006500001501040202F212B08958EE896E0FC01D8
:1006600005911491FC013296A591B491FC01349648
:1006700025913491422F432B19F0F901E4DF01C099
:10068000DEDF069616E08A39910748F308950A00DE
:1006900060009A060E006A0000003F065B4F666D20
:0406A0007D077F6FE4
:00000001FF
:00000001FF
