:100000000C940F0118951895189518951895189532
:100010001895189518951895189518951895189578
:100020001895189518951895189518951895189568
:100030001895189518951895189518951895189558
:100040001895189518951895189518951895189548
:100050001895189518951895392F682F00E00BBB47
:100060000FEF0ABB00E008BB0FEF07BB00E005BBCA
:100070000FEF04BB00E002BB0FEF01BB1BC0482F1A
:1000800001E010E00E941D0112B3102B12BB0FEF14
:1000900010E722E0015010402040E1F700C00000CE
:1000A0000196883000E0900754F300E002BB05BBE6
:1000B00008BB0BBB80E090E010C0482F01E010E0CF
:1000C0000E941D010BBB0FEF10E722E00150104012
:1000D0002040E1F700C000000196883000E0900762
:1000E00064F300E00BBB80E090E010C0482F01E01B
:1000F00010E00E941D0108BB0FEF10E722E0015045
:1001000010402040E1F700C000000196883000E078
:10011000900764F300E008BB80E090E010C0482F37
:1001200001E010E00E941D0105BB0FEF10E722E087
:10013000015010402040E1F700C0000001968830D7
:1001400000E0900764F300E005BB80E090E010C0A1
:10015000482F01E010E00E941D0102BB0FEF10E7E5
:1001600022E0015010402040E1F700C0000001965D
:10017000883000E0900764F300E002BB80E090E08C
:1001800012C0482F01E010E00E941D011BB3102B8C
:100190001BBB0FEF10E722E0015010402040E1F7B9
:1001A00000C000000196883000E0900754F380E022
:1001B00090E012C0482F01E010E00E941D0118B32A
:1001C000102B18BB0FEF10E722E001501040204029
:1001D000E1F700C000000196883000E0900754F37A
:1001E00080E090E012C0482F01E010E00E941D0165
:1001F00015B3102B15BB0FEF10E722E00150104094
:100200002040E1F700C000000196883000E0900730
:1002100054F380E090E045CF00008895FECF0FE9D1
:100220000DBF00E00EBFC0E8D0E00E9423010E9495
:100230002C000E940C010C940C014A951AF0000F3E
:0A024000111FFBCF089501E008959F
:00000001FF
:00000001FF
