:10000000A9C01895189518951895189518951895CC
:10001000189579C0189518951895189518951895EC
:100020001895189518950A006000DE0104006A0012
:1000300000000FEF08BB0FEF07BB02B30C7F02BB42
:1000400001B3036001BB00E000936A0000E000938D
:100050006B0008958A93802F4AE0082F88D0042FE0
:10006000E02FE05AF0E0008100936A004AE0082F98
:100070007ED0E02FE05AF0E0008100936B00899180
:10008000089502B30C7F02BB00916C00E02FE6598B
:10009000F0E0008108BB00916C00002309F4909A05
:1000A00000916C00013009F4919A00916C00039565
:1000B00000936C0000916C00023019F400E0009392
:1000C0006C000895B6DF01E009BF05E003BF02EB55
:1000D00002BF789400916D00039500936D0000912C
:1000E0006D00043619F400E000936D0000916D007E
:1000F000B1DF0FEF19E628E1015010402040E1F791
:1001000000C00000E7CF8A93FA93EA933A922A92CA
:100110001A920A927A936A935A934A933A932A9339
:100120001A930A938FB702EB02BFABDF8FBF09911F
:100130001991299139914991599169917991099030
:10014000199029903990E991F991899118950000B9
:100150008895FECF0DEA0DBF00E00EBFCEE8D0E0DF
:1001600014D0002309F021D0ADDFF1DFF0CF00245F
:10017000E8E0EA9532F0001F001C0416D0F3041AE0
:10018000F8CF001F402D0095089501E0089520E06C
:1001900006D0E9F70895259102D0E9F708952D9347
:1001A00001501040202F212B089586E290E0FC01A1
:1001B00005911491FC013296A591B491FC013496FD
:1001C00025913491422F432B19F0F901E4DF01C04E
:1001D000DEDF069610E08233910748F308953F066C
:0801E0005B4F666D7D077F6F28
:00000001FF
:00000001FF
