:100000000C944801189518951895189518951895F9
:100010001895189518951895189518951895189578
:100020001895189518951895189518951895189568
:100030001895189518951895189518951895189558
:100040001895189518951895189518951895189548
:100050001895189518951895392F682F00E00BBB47
:100060000FEF0ABB00E008BB0FEF07BB00E005BBCA
:100070000FEF04BB00E002BB0FEF01BB1BC0482F1A
:1000800001E010E00E94560112B3102B12BB0FEFDB
:1000900010E722E0015010402040E1F700C00000CE
:1000A0000196883000E0900754F300E002BB05BBE6
:1000B00008BB0BBB80E090E035C002E00BBB0FEF4C
:1000C00010E722E0015010402040E1F700C000009E
:1000D00000E00BBB02E008BB0FEF10E722E001508D
:1000E00010402040E1F700C0000000E008BB02E043
:1000F00005BB0FEF10E722E0015010402040E1F770
:1001000000C0000000E005BB02E002BB0FEF10E7FB
:1001100022E0015010402040E1F700C0000000E064
:1001200002BB0196863000E090073CF280E090E050
:1001300010C0482F01E010E00E9456010BBB0FEFEA
:1001400010E722E0015010402040E1F700C000001D
:100150000196893000E0900764F380E090E010C0E1
:10016000482F01E010E00E94560108BB0FEF10E796
:1001700022E0015010402040E1F700C0000001964D
:10018000893000E0900764F380E090E010C0482FD1
:1001900001E010E00E94560105BB0FEF10E722E0DE
:1001A000015010402040E1F700C000000196893066
:1001B00000E0900764F380E090E010C0482F01E079
:1001C00010E00E94560102BB0FEF10E722E0015041
:1001D00010402040E1F700C000000196893000E0A7
:1001E000900764F300E002BB05BB08BB0BBB80E0DB
:1001F00090E012C0482F01E010E00E9456011BB3AE
:10020000102B1BBB0FEF10E722E0015010402040E5
:10021000E1F700C000000196883000E0900754F339
:1002200080E090E012C0482F01E010E00E945601EB
:1002300018B3102B18BB0FEF10E722E0015010404D
:100240002040E1F700C000000196883000E09007F0
:1002500054F380E090E012C0482F01E010E00E94CB
:10026000560115B3102B15BB0FEF10E722E001501C
:1002700010402040E1F700C000000196883000E007
:10028000900754F380E090E00CCF00008895FECFFB
:100290000FE90DBF00E00EBFC0E8D0E00E945C0196
:1002A0000E942C000E9445010C9445014A951AF0C9
:0C02B000000F111FFBCF089501E008951E
:00000001FF
:00000001FF
