:1000000013C1189518951895189518951895189561
:100010001895CBC01895189518951895189518959A
:100020001895189518951131123214332134223550
:100030002436413742384439812A823084230500EE
:10004000A000000001B3006F01BB02B30F7002BB40
:1000500004B3087F04BB05B3087F05BB00E0009331
:10006000A00000E00093A10000E00093A20000E0E7
:100070000093A30000E00093A40008950091A00065
:10008000005039F00A9569F00A95B9F00A95E1F047
:10009000089526D0002319F136D001E00093A00086
:1000A000089524D0002329F047D002E00093A00057
:1000B000089500E00093A000089518D0002379F47B
:1000C00003E00093A000089511D0002321F002E086
:1000D0000093A000089555D000E00093A00008957B
:1000E00002B3006F02BB03B30770089512B31F7011
:1000F0000091A100007F102B12BB03B31091A1004F
:1001000001230770089510E11123A9F002B30F70C5
:10011000012B02BB03B30770002359F003B3077030
:100120000093A10002B3007FE1EAF0E02081202BE0
:100130002083110FE9CF089520E02C3000F5022F25
:1001400010E0000F111FF801EA5DFF4F04911091BC
:10015000A100011791F4022F10E0000F111FF80108
:10016000E95DFF4F04910093A20001E00093A3001A
:1001700001E00093A40001E008952395DECF00E0A4
:10018000089500E00093A30008950091A4000023C7
:1001900031F000E00093A4000091A200089500E077
:1001A00008955D9BFECF0CB908958A93FA93EA9364
:1001B0003A922A921A920A927A936A935A934A939B
:1001C0003A932A931A930A938FB703E802BF56DF34
:1001D0008FBF09911991299139914991599169914B
:1001E00079910990199029903990E991F991899123
:1001F00018958A9300E000BD03E309B908E00AB945
:1002000006E800BD01E009BF04E003BF03E802BF48
:1002100019DF7894BADF802F8823E1F3082FC1DF3C
:10022000F9CF00008895FECF0FE90DBF00E00EBFAB
:10023000C0E8D0E006D0002309F013D0DADFF1DF08
:10024000F0CF01E0089520E006D0E9F70895259168
:1002500002D0E9F708952D9301501040202F212B53
:1002600008958EE390E0FC0105911491FC01329613
:10027000A591B491FC01349625913491422F432BE2
:1002800019F0F901E4DF01C0DEDF069610E08434E6
:06029000910748F30895F8
:00000001FF
:00000001FF
